:020000022000DC
:1060000000000420996C0A00D96C0A00617F0A0024
:10601000DD6C0A00DF6C0A00E16C0A000000000081
:10602000000000000000000000000000296B0A00D2
:10603000E56C0A0000000000496B0A00E96C0A00E8
:10604000996E0A00EB6C0A000D460A0089060800EA
:10605000EB6C0A00EB6C0A00A5480A00EB6C0A0026
:10606000EB6C0A00EB6C0A00EB6C0A00EB6C0A00AC
:10607000EB6C0A00EB6C0A00EB6C0A00EB6C0A009C
:10608000EB6C0A00A1680A00EB6C0A00EB6C0A00DA
:10609000EB6C0A00EB6C0A001D280A00EB6C0A008E
:1060A000EB6C0A00EB6C0A00EB6C0A00EB6C0A006C
:1060B000EB6C0A00EB6C0A0000000000000000001E
:1060C000EB6C0A00EB6C0A00EB6C0A0019750A0015
:1060D000EB6C0A00EB6C0A00EB6C0A00BD6C020072
:1060E0001D460A00EB6C0A00EB6C0A000000000081
:1060F00000000000EB6C0A00000000002D750A0093
:10610000000000000000000000000000000000008F
:10611000000000000000000000000000000000007F
:10612000000000000000000000000000000000006F
:10613000000000000000000000000000000000005F
:10614000000000000000000000000000000000004F
:10615000000000000000000000000000000000003F
:10616000000000000000000000000000000000002F
:10617000000000000000000000000000000000001F
:10618000000000000000000000000000000000000F
:1061900000000000000000000000000000000000FF
:1061A00000000000000000000000000000000000EF
:1061B00000000000000000000000000000000000DF
:1061C00000000000000000000000000000000000CF
:1061D00000000000000000000000000000000000BF
:1061E00000000000000000000000000000000000AF
:1061F000000000000000000000000000000000009F
:1062000010B5054C237833B9044B13B10448AFF3F0
:1062100000800123237010BDCC6F0020000000001F
:106220004C1F0E0008B5034B1BB103490348AFF3E5
:10623000008008BD00000000D06F00204C1F0E0041
:10624000A3F5803A704700BF174B002B08BF134BD4
:106250009D46FFF7F5FF00218B460F461348144A71
:10626000121A96F0CBFB0E4B002B00D098470D4B2B
:10627000002B00D098470020002104000D000D489D
:10628000002802D00C48AFF3008096F0E3FA20001B
:10629000290080F043FD96F0ADF900BF0000080032
:1062A000000000000000000000000420CC6F00206F
:1062B000EC950120000000000000000008B5014638
:1062C000014800F0F3FA08BD0470002038B5064B11
:1062D0001D780024AC4205D2204600F0EDFD0134CB
:1062E000E4B2F7E738BD00BF007000202DE9F04FA1
:1062F00095B0074601939146002A00F0AA805A4BB8
:1063000093F81C41A21C83F81C2193F81D61751C95
:10631000EDB246F080066A1C83F81D2145F0800529
:1063200093F81E8108F1010283F81E213E2200210C
:1063300004A896F063FB4FF0080A8DF80CA00B231D
:106340008DF80D3002238DF80F308DF810308DF858
:1063500011304FF0090E8DF814E004208DF815006F
:106360004FF0010C8DF818C08DF819308DF81A30E7
:1063700005228DF81D2024218DF81E104FF0200BD2
:106380008DF820B08DF821C08DF822208DF82310D3
:106390008DF824C08DF827008DF828108DF829304D
:1063A0008DF82A308DF82B208DF82C1006218DF8D1
:1063B0002D1007218DF830108DF831204FF0030C8F
:1063C0008DF833C08DF834A04FF0100C8DF836C026
:1063D0008DF837E08DF838008DF83B300A208DF8C5
:1063E0003C008DF840108DF841208DF8433040205E
:1063F0008DF844008DF847108DF848208DF84A300C
:106400008DF84B008DF80E408DF816403B7D8DF8D1
:106410001C30631CDBB28DF826308DF82E408DF8D1
:106420002F308DF832608DF839308DF842808DF83C
:106430004950B9F1000F12D0019B412B11D94224D0
:10644000224603A9484696F0B1FA204615B0BDE8A9
:10645000F08F4FF0000845464646444666E7422026
:10646000F4E70020F2E700BF04700020A0F1100064
:10647000FFF73CBF00B583B08DF8071003685B6879
:1064800001220DF10701984703B05DF804FB407D40
:10649000FF2809D010B500F0D7FC044608B120460B
:1064A00010BD81F00FFAFAE700207047407DFF2809
:1064B0000BD000B583B00DF1070100F0EFFC38B14F
:1064C0009DF8070003B05DF804FB4FF0FF30704704
:1064D0004FF0FF30F6E7407DFF280FD000B583B0C6
:1064E00001220DF1070100F0BDFC20B19DF807006D
:1064F00003B05DF804FB4FF0FF30F9E74FF0FF30D9
:106500007047407DFF2803D008B500F0D5FC08BDDA
:106510007047F8B5437DFF2B18D006460D46174649
:10652000144603E0381BF8BD81F0CCF9002CF9D0FB
:10653000707D00F05BFC0028F4D022462946707D77
:1065400000F018FD0544241AF0D0EDE70020EAE73A
:10655000407DFF2803D008B500F030FD08BD0020C5
:1065600070470000002242604FF47A71816002752A
:10657000044A02F10801016030320261FF224275D3
:10658000704700BF98260C00012800D0704708B55E
:106590004FF6FF73994200D008BD0248FFF7E2FFB3
:1065A000FAE700BFE86F0020437DFF2B02D10A4BC2
:1065B0001B7803B1704710B5591C074A1170437519
:1065C00000F110040549204600F000FA2146044875
:1065D00000F04AF910BD00BF0070002088260C00B2
:1065E0000470002008B5FFF7DFFF08BD10B50446B2
:1065F000044800F0EDF8044B00221A70FF23637585
:1066000010BD00BF047000200070002010B5407D58
:10661000FF2808D000F0EAFB044608B1204610BD70
:1066200081F050F9FAE70024F8E701B900B17047AA
:1066300000B583B0694600F0F9FB009BB3F5966F97
:1066400002D003B05DF804FB00F050FBF9E708B599
:106650004FF6FF710120FFF797FF08BD70B44FF6AA
:10666000FD730B60047804F14003DBB2012B58D9B1
:10667000F42C5AD814F0800F0ED101250122954236
:1066800022DD835C03F0C006802E54D103F03F036B
:1066900043EA84140132F2E704F0E003C02B0BD08C
:1066A00004F0F003E02B0BD004F0F803F02B3FD103
:1066B00004F007040425E1E704F01F040225DDE7E8
:1066C00004F00F040325D9E7012D0DD0022D10D0C1
:1066D000032D16D0042D1CD0A4F55843B3F5006F3C
:1066E0002CD30C6068B21EE07F2CEFD94FF0FF3046
:1066F00019E0A4F18003B3F5F06FE9D34FF0FF3058
:1067000011E0A4F50063B3F5784FE3D34FF0FF3009
:1067100009E0A4F58033B3F5801FDDD34FF0FF30DF
:1067200001E04FF0FF3070BC70474FF0FF30FAE7E8
:106730004FF0FF30F7E74FF0FF30F4E74FF0FF3056
:10674000F1E72DE9F04182B006460F46904600255C
:106750002C4613E0013411E0691C414521DAA3F510
:10676000803301939A0AA2F5205227F81520C3F32B
:1067700009030235A3F5105327F811303019335DA2
:106780007BB101A9FFF76AFF0028E3DB0444019B0A
:10679000B3F5803FE0D2454503D027F815300135E9
:1067A000ECE7284602B0BDE8F081034690F85001BE
:1067B0000B2808D849B1421C83F8502100F1480247
:1067C00043F82210704700207047002070470000F7
:1067D000F0B589B00446214F03AD3E460FCE0FC53C
:1067E00033682B80254603AE0FCE0FC533682B8050
:1067F0006D4607F1140393E8070003C504F118057B
:106800006B4603CBA061E16184F8202065614FF401
:106810008073A4F81A310923A4F81831002584F8EC
:106820001C51012384F81E3184F81D312022294691
:1068300004F5987096F0E2F840F20943C4F820316C
:10684000074BC4F82431074BC4F82831C4F82C5145
:10685000042384F8503109B0F0BD00BF04270C00B8
:10686000CC260C00D8260C0038B5044608466169D1
:10687000B4F8182103681D68B4F81A319B1A9BB24A
:106880000A4494F81C11A84768B10346B4F81821CB
:1068900013449BB2A4F818316269538094F81C31F8
:1068A0001371012038BD0020FCE7000070B50446DC
:1068B0000D46FFF78DFFEF2323710223637101263D
:1068C000A6714FF4E1310448FFF76EFE284600F050
:1068D000FBF9304670BD00BFE86F0020F0B589B00D
:1068E0000D46D0F82C0130B120220231FFF729FFEC
:1068F000C0B209B0F0BD684600F0FCF907460026BA
:106900001DE0124B0FCB0DF1200C0CE90F0063467C
:10691000334413F8203CA200134103F00F0372002C
:106920000132C4F101010A44634413F8103C25F814
:1069300012300134E4B2012CE3D90136F6B2BE4282
:1069400001D20024F7E77800C0B2D2E7F0260C00AD
:1069500010B5044681B10B4603291BD090F8502195
:106960008A421DD94833202200F5AA7150F823002D
:10697000FFF7E7FEC3B204E0D0F82031A0F85431AD
:10698000012301335B0043F44073A4F8523104F552
:10699000A97010BD00F5A971FFF7A0FF0346F0E74D
:1069A0000020F6E70048704704700020014B58694A
:1069B000704700BF0470002008B50A46014602482F
:1069C000FFF7C6FF08BD00BF0470002010B50446E5
:1069D0000248FFF7EAFE207110BD00BF04700020DE
:1069E000024B53F8200000B1C06870479871002036
:1069F00038B50C4611461A46074B53F8203033B1D0
:106A00001D6935B1BDF810302046A84738BD0020BB
:106A1000FCE70020FAE700BF9871002038B50C466B
:106A200011461A46054B53F820302BB15D691DB154
:106A3000BDF810302046A84738BD00BF987100202F
:106A40000020704790F860007047000008B5044BC4
:106A5000186810B1FFF7F6FF08BD0020FCE700BF83
:106A6000A07100202DE9F84304461D46204B18680C
:106A7000A0B3884616462C2303FB0403D3F82090CA
:106A8000B9F1000F2CD02C2303FB04035F6A57B32A
:106A90002C2303FB0404A46A3CB3484697F082FA13
:106AA0000246072800D908224946404695F07EFF55
:106AB000384697F077FA02460F2800D91022394657
:106AC000304695F073FF204697F06CFA0246032893
:106AD00000D904222146284695F068FFBDE8F883D6
:106AE000DFF81890CFE7034FD2E7034CD5E700BF9C
:106AF000A071002030270C0040270C0024270C0038
:106B000038B5114B1D68E5B104462C2303FB005337
:106B10005B692BB198472C2303FB045585F83200A1
:106B2000094B1A682C2303FB042393F832500DB150
:106B3000284638BD00233A220221204601F06CF895
:106B4000F6E70025F4E700BFA0710020074B1B68A3
:106B500053B110B42C2404FB0030C36A0B60038EC5
:106B600013805DF8044B7047704700BFA071002090
:106B700008B500232022052101F04EF84FF0FF3028
:106B800008BD000038B50446084611461A46074BB2
:106B90001B6833B12C2505FB0434E3691BB198470E
:106BA00038BD0120FCE70120FAE700BFA0710020FA
:106BB000024608461946094B1B6843B110B52C2400
:106BC00004FB023293682BB1029A984710BD4FF034
:106BD000FF3070474FF0FF30F8E700BFA071002092
:106BE000024608461946094B1B6843B110B52C24D0
:106BF00004FB0232D3682BB1029A984710BD4FF0C4
:106C0000FF3070474FF0FF30F8E700BFA071002061
:106C100008B5054B1B682BB12C2202FB0030036921
:106C200003B1984708BD00BFA071002008B5074B0D
:106C30001B6833B12C2202FB003083691BB19847DB
:106C400008BD0120FCE70120FAE700BFA071002089
:106C500010B582B04FF08043D3F8384400238DF84C
:106C6000043001A880F09AF8074B0093684680F042
:106C700007F980F0D5F814F0010F01D102B010BD72
:106C8000002005F097F9F9E78D6C020008B505F0D2
:106C900091F908BD08B5084B402283F8272300204E
:106CA00003F022FCFFF7D4FF00214FF0FF3004F087
:106CB000B9F8FFF70BFBF7E700E100E008B50020AB
:106CC00004F054FF08BD000000B583B00023019319
:106CD00003220092C822034903487EF051FF03B00B
:106CE0005DF804FB44270C00956C020008B581F0A8
:106CF00017FA08BD4FF08052536E1BBA0360136E33
:106D00001BBA436008207047004870474C270C00AE
:106D100038B5224B1B68002B37D01546012936D1D8
:106D20001478C4F34114012C1AD0022C31D15278BA
:106D3000012A03D0022A08D0012029E09A6952B31F
:106D40001378294604F0F4F922E0AB88072B01D030
:106D500000201DE0124A1389294604F0E9F917E0E2
:106D60005278222A01D0012012E06A88003A18BF26
:106D700001225A75294604F0C1F9084B1A68D369F3
:106D80000BB1507D9847012002E0002000E0012077
:106D900038BD0020FCE70020FAE700BFA471002006
:106DA0000460002038B5044600F11005284603F0C1
:106DB0006EF93F2801D8002038BDE178002003F0AB
:106DC00073FD0028F8D0284603F061F93F2807D961
:106DD000402304F53672E178002003F08DFDEBE7E7
:106DE000E178002003F074FD0020E5E710B50446CB
:106DF00003F062FB60B900238BB10B484FF456736C
:106E000003FB0400037913F0010F0AD0012007E00F
:106E100003F05AFB08B90123EEE70023ECE700205A
:106E200010BD0020FCE700BFA8710020054B4FF407
:106E3000567202FB0033986808609A899B7B8A80AF
:106E40008B717047A871002008B54FF4567303FB8F
:106E500000F310330248184403F0FCF808BD00BFEB
:106E6000A871002038B50C4C4FF4567303FB00F0AA
:106E70002518103020444FF6FE739A4208D892B27B
:106E800003F01BF904462846FFF78CFF204638BD67
:106E90004FF6FF72F4E700BFA871002008B54FF469
:106EA000567303FB00F310330248184403F00AF949
:106EB00008BD00BFA871002070B5054603F0FCFABC
:106EC00018B9002242B9002070BD03F0FDFA08B9DC
:106ED0000122F7E70022F5E74FF4567303FB05F3B1
:106EE0002033224C1C440434204603F0B3F808B984
:106EF0000020E9E71D4A4FF4567303FB05239978F8
:106F0000002003F0D1FC08B90020DDE74FF45673F0
:106F100003FB05F303F54673144E1E44402231462D
:106F2000204603F0CAF80446A8B1104B4FF456703F
:106F300000FB0530234632468178002003F0DCFC5C
:106F400038B90B4B1B6813F0010F00D000BE0020B6
:106F5000BAE72046B8E7054B4FF4567202FB0533FB
:106F60009978002003F0B4FC0020ADE7A871002060
:106F7000F0ED00E070B505464FF4567404FB00F4E4
:106F800004F120030C4C1C4404344FF6FE739A4267
:106F90000BD892B2204603F0B0F80646204603F024
:106FA00059F83F2804D8304670BD4FF6FF72F1E71C
:106FB0002846FFF781FFF6E7A871002008B54FF4D7
:106FC000567303FB00F02030024B1844043003F0EA
:106FD0005EF808BDA87100202DE9F04383B04FF49E
:106FE00056720021264895F009FD002616B103B01F
:106FF000BDE8F083224F4FF4567404FB06F43D19AC
:10700000FF236B714FF4E133AB604FF0000885F85C
:107010000C8085F80D800823AB7304F1380104F16E
:107020001000CDF8008001234FF4807239443844B9
:1070300002F0D9FF04F59C7104F1200038444FF0B0
:107040000109CDF800904B464FF48072394404306A
:1070500002F0C9FF04F50E71394448467EF0CEF9BE
:10706000C5F81C80286204F52271394448467EF038
:10707000C5F92863C5F834804E44F6B2B6E700BFC0
:10708000A871002070B5002606B170BD0D4C4FF4FC
:10709000567505FB06F5621900236351137105F15E
:1070A0001000204403F02EF820352C4404342046F0
:1070B00003F028F80121204603F044F80136F6B227
:1070C000E2E700BFA8710020F0B583B04B79022B36
:1070D00067D106468B79022B67D1002383B1002745
:1070E000F7B18B783B700D780D4409246B78242B15
:1070F0001ED194421CD82B781C44A4B21D44F5E741
:107100001F462B4C4FF4567000FB0340807810B1A3
:107110000133DBB2E2E74FF4567000FB0747DFE7CD
:10712000244B1B6813F0010F00D000BE002439E08F
:10713000052B09D06B78042B02D16B790A2B17D061
:107140003846FFF72FFE2DE02946304603F044FB7A
:1071500030B1AB787B702B781C44A4B21D44E9E7B6
:10716000144B1B6813F0010F00D000BE002419E07F
:1071700029780C44A4B2BB1C0193FB1C009302238E
:107180001A462944304603F051FB10B10E34A4B224
:10719000D6E7084B1B6813F0010F00D000BE002497
:1071A00000E00024204603B0F0BD0024FAE700BF51
:1071B000A8710020F0ED00E0137803F06003202BAD
:1071C0006CD170B514463B4A0025002D68D1167865
:1071D000A3889E4204D00135EDB202F55672F4E761
:1071E0006378203B032B5DD8DFE803F002192445C8
:1071F000012903D0032908D0012052E007230832D7
:10720000214603F095FF01204BE02B4B002B4BD088
:1072100002F108012846AFF30080012041E0012976
:1072200001D001203DE007230832214603F080FF12
:10723000012036E0012903D0032906D0012030E0E7
:10724000214603F05BFF01202BE0638813F001046B
:10725000C3F3400613710CBF0121002102F1240089
:1072600002F070FF154B0BB3324621462846FFF75C
:10727000DCF9012015E0012903D0032906D0012003
:107280000FE0214603F03AFF01200AE00C4B7BB1EE
:1072900061882846AFF30080012002E0002070479B
:1072A000002070BD0020FCE70120FAE70120F8E78C
:1072B0000120F6E7A8710020000000002B66020004
:1072C000000000002DE9F04780460E469946002454
:1072D00054B1BCB9EB78B3421CD0AB78B3424AD0BE
:1072E00001242046BDE8F087384B4FF4567505FB66
:1072F0000435EB78B342ECD0AB78B342E9D001343B
:10730000E4B2E5E7324B1B6813F0010F00D000BE7A
:107310000024E6E705F1100A1FFA89F205F5367137
:10732000504602F0EAFE2B4BBBB16B79FF2B14D019
:10733000002700E001374F450FD26A79EB1993F827
:10734000D8329A42F6D1504602F098FE0028F1D188
:1073500069792046AFF30080ECE71F4B1BB1504624
:1073600002F08CFE18B12846FFF71CFDB5E7204659
:10737000AFF30080F7E7194B13B12046AFF300805D
:107380002046FFF799FD08B10124AAE705F1240082
:1073900002F060FEB0B9B9F1000F15D019F03F0F3F
:1073A00001D001249DE7A978404603F07DFA044608
:1073B00008B9012495E700231A46A978404603F04E
:1073C0009BFA8EE701248CE701248AE7A87100204C
:1073D000F0ED00E0000000000000000000000000F0
:1073E00008B54FF48C720021014895F007FB08BDE9
:1073F0000075002008B50020FFF7F2FF08BD00006F
:10740000F0B583B04B79032B6ED106460D460C794F
:10741000C4EBC404A4B21234A4B294420CD8002326
:10742000012B15D81F4632498C2202FB03125278D9
:1074300052B10133DBB2F3E72E4B1B6813F0010F9F
:1074400000D000BE002450E08C2202FB071700E0B1
:10745000002767B12B78E9184A78212A0FD0254BED
:107460001B6813F0010F00D000BE00243DE0214B4B
:107470001B6813F0010F00D000BE002435E0C7F8F0
:107480008810E85C7B1C0193BB1C009303232A79C2
:107490000144304603F0CAF9D8B1AB79012B20D0B2
:1074A00001233B71AB783B70D7F88830B3F80730D5
:1074B000FB80B978C9B1402307F14802304603F098
:1074C0001BFA90B90B4B1B6813F0010F0DD000BED7
:1074D0000BE0084B1B6813F0010F00D000BE002426
:1074E00003E0EB79FB70DBE70024204603B0F0BD3E
:1074F00000750020F0ED00E02DE9F04182B0154666
:10750000127802F01F03012B40F01F810646AF885E
:10751000FFB20024012C09D88C2303FB04F3934809
:10752000C35C9F4203D00134E4B2F3E7FF24012C93
:1075300000F20F81274612F060022FD1012901D0FD
:10754000012003E16B881B0A6A78062A06D0062A06
:1075500040F00381222B12D00020F7E0212BF6D13E
:10756000824A8C2303FB0427D7F88820002A00F0E6
:10757000F28013782946304603F0DAFDE6E0204633
:10758000FFF72EFA024679498C2303FB0717FB8885
:107590002946304603F0CCFD0120D7E0202A40F0F8
:1075A000DE806B78013B0A2B00F2DB80DFE803F022
:1075B0000693A3D9D9D9D9D9457BB300012901D0E4
:1075C0000120C3E06B881A0ADFF8A0E18C2000FBE1
:1075D00004F008300EEB0008EF88BC46402F28BFAF
:1075E0004FF0400C13F0FF010BD0012F1BD908F115
:1075F00001030EF800100CF1FF3C1FFA8CFC012770
:1076000001E043460027CDF800C02046FFF7F0F91F
:107610003B189BB253B9564B1B6813F0010F00D0B7
:1076200000BE002092E043460027ECE74246294690
:10763000304603F07DFD012088E0012903D00329B5
:1076400012D0012082E0EB88402B01D900207DE0A0
:107650008C2202FB04F2483244490A44294630464F
:1076600003F066FD012071E069880A0A3F4E8C2014
:1076700000FB04F048303318EF883D46402F28BF08
:10768000402511F0FF0104D0012F02D9305C88425F
:1076900005D000952046FFF7C1F9012056E00133DF
:1076A000013DADB2F5E7012901D001204EE0698826
:1076B000090A2E4A8C2303FB042779712D4B23B131
:1076C0002046AFF30080002840D02946304603F022
:1076D00015FD01203AE0012901D0012036E0234BBD
:1076E0008C2202FB0432012305322946304603F086
:1076F0001FFD01202AE0012901D0012026E01B4BBB
:107700008C2202FB0432012304322946304603F066
:107710000FFD01201AE0012903D0032907D0012021
:1077200014E02946304603F0E9FC01200EE06988A8
:10773000C9B20E4B8C2202FB043739710E4B93B148
:107740002046AFF30080012000E0002002B0BDE839
:10775000F0810020FAE70020F8E70020F6E700209B
:10776000F4E70020F2E70120F0E700BF00750020F9
:10777000F0ED00E00000000000000000F0B583B074
:107780000646234C002001E00130C0B2012809D890
:107790001F4C8C2505FB0044A5788D4202D06578EE
:1077A0008D42F1D1012807D862788A420DD0A278A3
:1077B0008A4213D0012006E0164B1B6813F0010F1C
:1077C00000D000BE002003B0F0BD134AF2B19AB25F
:1077D00004F10801AFF300800120F4E704F148054B
:1077E0009BB200932B4600221146FFF717F9402366
:1077F0002A46A178304603F07FF80028E3D1054BF4
:107800001B6813F0010FDED000BEDCE70120DAE7D1
:1078100000750020F0ED00E00000000038B50446DF
:1078200000F11005284602F032FC3F2800D838BD90
:10783000A178002003F038F80028F8D0284602F09C
:1078400026FC3F2807D9402304F5EC72A1780020DC
:1078500003F052F8EBE7A178002003F039F8E6E7EF
:1078600070B5044600F12405284602F0F3FB08B980
:10787000002070BD6178002003F016F808B90020E0
:10788000F7E704F5067640223146284602F015FC5B
:10789000054680B1034632466178002003F02CF89B
:1078A00038B9084B1B6813F0010F00D000BE002050
:1078B000DFE72846DDE76178002003F009F80020C3
:1078C000D7E700BFF0ED00E02DE9F04182B04FF4C2
:1078D000167200211E4895F091F8002515B102B0EE
:1078E000BDE8F0814FF4167404FB05F404F138018F
:1078F000174E04F110004FF00008CDF8008001236E
:1079000080223144304402F06EFB04F1B80104F1EE
:1079100020003044CDF8008001238022314404301F
:1079200002F061FB04F59C71314401207DF066FD9D
:107930003719C7F81C80386204F5C471314401203E
:107940007DF05CFD3863C7F834800135EDB2C5E7E2
:10795000A092012070B5002505B170BD4FF41674DA
:1079600004FB05F40A4EA2190023A351536093604F
:10797000D36004F11000304402F0C4FB04F1200095
:107980003044043002F0BEFB0135EDB2E4E700BF45
:10799000A09201202DE9F0474B79012B40F0838024
:1079A000064615468B79012B40F08180CB79002B60
:1079B0007FD10C78A3B20C446278242A06D1AB4262
:1079C00004D8227813449BB21444F5E7042A72D1F8
:1079D0006279012A71D1A279032A70D194F80780C3
:1079E000B8F1000F6DD142466AB14FF00009B9F10C
:1079F000000F1ED0A27889F8002094F800A053440C
:107A00009FB2A24435E091462F484FF4167101FB16
:107A10000201497829B94FF4167101FB02018978F6
:107A200011B10132D2B2DFE74FF4167101FB09093F
:107A3000DDE7264B1B6813F0010F00D000BE0027C6
:107A400032E0224B1B6813F0010F00D000BE00276C
:107A50002AE089F801309AF80020D3199FB29244A5
:107A600008F101085FFA88F89AF80020D3199FB24C
:107A700092442379434512D9AF4210D89AF8013085
:107A8000052BF1D15146304602F0A6FE0028D8D091
:107A90009AF80230DA09DCD189F80230DBE748468F
:107AA000FFF7BCFE00E000273846BDE8F08700275E
:107AB000FAE70027F8E70027F6E70027F4E70027B2
:107AC000F2E70027F0E700BFA0920120F0ED00E010
:107AD00000207047F8B506461F4600244CB1B4B9E3
:107AE000AB788B421BD06B788B4229D00124204687
:107AF000F8BD4FF41675244B05FB0435AB788B426B
:107B0000EDD06B788B42EAD00134E4B2E6E71F4B4C
:107B10001B6813F0010F00D000BE0024E7E7BAB2E3
:107B200005F5EC7105F1100002F0E7FA184B13B1FE
:107B30002046AFF300802846FFF770FE0124D6E709
:107B40002846FFF78DFE08B10124D0E705F1240097
:107B500002F080FAA0B9AFB117F03F0F01D00124B5
:107B6000C5E76978304602F09FFE044608B9012453
:107B7000BDE700231A466978304602F0BDFEB6E73D
:107B80000124B4E70124B2E7A0920120F0ED00E067
:107B900000000000002380F830304363836380F8E6
:107BA0003C3080F83D3080F83E307047C38A5BBA85
:107BB0009BB2826812B9DBB900207047C17B2829CB
:107BC00006D02A291ED013B39A4222D30020704730
:107BD00010B4047BE4090DD02A2904D063B19A4281
:107BE0000ED3002009E0017BC909F7D0022004E090
:107BF00002207047022000E001205DF8044B70472E
:107C00000220FAE7017BC909DDD00220704701207C
:107C10007047022070470000044880F83C1080F84C
:107C20003D2080F83E300120704700BF18780020CA
:107C3000F0B58DB0064615461F460C78252C00F28F
:107C40004681DFE814F026004401440109014401A3
:107C500044014401440144014401440144014401FC
:107C600044014401440144014401B300440144017E
:107C700044014401440144014401E3003A00440149
:107C80004401440144014401440144018000440191
:107C90005800FEF735FF002840F01E81914B93F805
:107CA0003C3013B14FF0FF3413E13A220221304649
:107CB000FFF7B2FF4FF0FF340BE18B4B002B00F0CE
:107CC0000D810979C1F3400301F001020909FEF7B2
:107CD00059FF002840F00481824B93F83C3013B1E7
:107CE0004FF0FF34F5E03A2202213046FFF794FFCF
:107CF0004FF0FF34EDE00DF1060202A9FEF726FF7A
:107D0000BDF80620029B03B172B9764B93F83C3064
:107D100013B14FF0FF34DCE03A2202213046FFF786
:107D20007BFF4FF0FF34D4E0013B1BBA039312BA40
:107D30000492072F05D903AB03CB286069600824A0
:107D4000C7E00024C5E000230393049305930823B0
:107D50008DF80F3002238DF814300DF1060202A9C0
:107D6000FEF7F4FE029B13B1BDF8062072B95D4B1D
:107D700093F83C3013B14FF0FF34AAE03A220221CD
:107D80003046FFF749FF4FF0FF34A2E01BBA0493DF
:107D900052BAADF816200B2F06D903AB07CB2860DB
:107DA0006960AA600C2494E0002492E0002303930D
:107DB000049380238DF80D3002238DF80E308DF85A
:107DC0000F301F238DF810304FF0203305930693AA
:107DD0000793089309930A930B930BAB07AA05A982
:107DE000FEF740FE232F0FD903AE0BAF34460FCC66
:107DF00028606960AA60EB6026461035BC42F5D168
:107E000020682860242464E0002462E003238DF8C5
:107E10000C3000238DF80D309DF80E2063F3060220
:107E20008DF80E208DF80F30304B8BB1FEF7FEFE33
:107E3000034683F00103DBB29DF80E2063F3C71203
:107E40008DF80E20032F05D9039B2B60042440E0FE
:107E50000123EEE700243CE0002303930493059301
:107E60000693ADF81C30F0238DF80C300A238DF802
:107E700013301C4B93F83C104FF0000261F30302E7
:107E80008DF80E2093F83D208DF8182093F83E30A1
:107E90008DF81930112F18D903AC0FCC2860696008
:107EA000AA60EB6023882B82114B63B1BAB22946DA
:107EB0003046AFF30080044600231A461946304688
:107EC000FFF7AAFE05E01224F6E7002401E04FF0D8
:107ED000FF3420460DB0F0BD0024FAE70024F8E797
:107EE0000024F6E718780020856B02002D6C020054
:107EF0000000000038B505460C4681F82C208B6840
:107F00008A6B9B1A8B62022381F8303091F83C30E7
:107F100063B1A3684BB1A36A3BB1237BDB090BD0F0
:107F200094F82E10284602F031FD38BD202205219C
:107F3000607BFFF771FEECE794F82F10284602F003
:107F400025FDF2E770B586B006460D46CC8A64BAC8
:107F5000A4B21CB18A68B2FBF4F4A4B2D5F8111033
:107F600009BAAA6BB2FBF4F0AB689B1AB3F5007FB9
:107F700028BF4FF4007300931C4B04FB10220144F4
:107F8000687BFEF715FE002814DBF8B995F82E3053
:107F90000021039104918DF80C6007228DF80D20CB
:107FA0008DF8103005918DF8111003A802F01CFB1C
:107FB00006B070BD00233A220221687BFFF72CFE39
:107FC000012229463046FFF795FFF1E783B2074AC1
:107FD00095F82E10304602F08FFC0028E8D1044BB3
:107FE0001B6813F0010FE3D000BEE1E71876002014
:107FF000F0ED00E038B505460C46154B1BB1487B4B
:10800000FEF714FE80B1A368A26B9B1AB3F5007F44
:1080100028BF4FF400739BB20E4A94F82F102846E5
:1080200002F06AFC60B138BD002327220721607B83
:10803000FFF7F2FD012221462846FFF75BFFF2E73A
:10804000054B1B6813F0010FEDD000BEEBE700BF3E
:108050002D6C020018760020F0ED00E0F0B587B03E
:1080600007460C461646CD8A6DBAADB21DB18A6878
:10807000B2FBF5F5ADB2D4F8111009BAA26BB2FBA0
:10808000F5F00096244B05FB10220144607BFEF7BF
:10809000A7FD011E18DBB1422FD2761A002922DC7F
:1080A00094F82F300021039104918DF80C70072271
:1080B0008DF80D208DF8103005968DF8111003A85D
:1080C00002F092FA07B0F0BDA26B3244A263002323
:1080D0003A220221607BFFF79FFD012221463846AC
:1080E000FFF708FFEEE7A36B13FA81F3A3630A48D7
:1080F0003246014494F068FCD2E7A26B1644A663B2
:10810000636B9E4203D3022384F83030DAE72146C2
:108110003846FFF76FFFD5E71876002008B54022F4
:108120000021024894F06AFC08BD00BF18780020C6
:1081300008B540220021024894F060FC08BD00BF51
:10814000187800204B79082B40D110B582B0044636
:108150008B79062B3CD1CB79502B3CD1162A07D8F2
:108160001E4B1B6813F0010F00D000BE002030E052
:108170008A781B4B83F82D20087803F12E02019298
:108180002F33009302231A460144204602F04EFB8F
:1081900038B9124B1B6813F0010F00D000BE00204D
:1081A00017E00F4A002382F830301F2392F82F1077
:1081B000204602F0A1FB08B117200AE0074B1B681C
:1081C00013F0010F00D000BE172002E0002070471E
:1081D000002002B010BD0020FBE700BFF0ED00E082
:1081E00018780020012940F09C8030B583B0054606
:1081F0001446137803F07F02022A13D003F06003C1
:10820000202B40F090806378FE2B6CD0FF2B40F049
:108210008D806388002B40F08B80E388002B59D041
:10822000002081E06278012AE8D16288002AE5D145
:10823000A188C9B23F4B93F83030042B24D03D4A7B
:1082400092F82E00884222D03A4A92F82F408C426F
:108250001FD1F3B92146284602F08AFB002830D00E
:108260000023B3B1334A002382F830301F2392F841
:108270002F10284602F040FB58B92F4B1B6813F013
:10828000010F51D000BE4FE002F080FB01E0022B55
:1082900001D0012048E09368916B5B1A936203233D
:1082A00082F830300D2320320146284602F024FBAC
:1082B0000028EED1204B1B6813F0010F34D000BE14
:1082C00032E02146284602F0B1FB08B90123C8E795
:1082D0000023C6E71748FFF75DFC2146284602F059
:1082E0000DFF012020E063886BB9E388012B0AD1E0
:1082F0008DF80730114B1BB1FEF7A8FB8DF8070076
:108300009DF807300BB900200EE0013B8DF80730D7
:1083100001230DF107022146284602F009FF012042
:1083200002E001207047002003B030BD0020FBE7D1
:108330000020F9E718780020F0ED00E04D6A020017
:1083400070B50546A44C94F83040012C00F0C7806D
:10835000032C00F006813CB19F4B93F83030022B88
:1083600000F04A81012070BD9B4A92F82F0088429C
:1083700040F075811F2B03D11268984B9A420FD0A1
:10838000954C042384F8303094F82E10284602F0DF
:10839000FDFA94F82F10284602F0F8FA0020E2E7E0
:1083A0008D4B8F4A1A625A685A6200229A6283F889
:1083B0002C20012183F830109C685C639A63DE7B7B
:1083C000282E10D02A2E0ED0002C37D0824B1B7BAB
:1083D000DB0933D1B4F5007F21D901227E4928463B
:1083E000FFF788FDB8E77C48FFF7E0FB024638B9A5
:1083F00084B1282E09D078492846FFF7FBFDABE76A
:1084000075492846FFF776FDA6E773492846FFF72A
:1084100099FDA1E7704B022283F830209CE7A3B2BC
:10842000704A0146284602F067FA002894D16E4B44
:108430001B6813F0010F96D000BE94E766484FF416
:108440000073684A00F10F01407BFFF7F1FB031E48
:108450000ADB002B17DB13BB5F4B9B68CBB95E4B72
:10846000022283F8302077E75B4A92F83C20002A0A
:10847000EFD15948838E5B4A00F10F01407BFEF734
:1084800077FB0346E5E7012253492846FFF732FD13
:1084900062E7012250492846FFF72CFD5CE74E4A6F
:1084A00092682AB901224C492846FFF723FD53E779
:1084B000934228BF134648494B639BB2494A91F8FF
:1084C0002E10284602F018FA00287FF445AF464BDC
:1084D0001B6813F0010F3FF446AF00BE43E73E4A6E
:1084E000D27B282A12D02A2A1FD03B498A6B1344F8
:1084F0008B630B7BDB091DD0374B9A6B5B6B9A420E
:1085000027D3354B022283F8302025E732498A6B86
:1085100013448B634A6B934203D3022281F83020C9
:108520001AE72D49FFF70EFD16E71A462A49FFF70D
:1085300095FD11E708468B8E2A4A0F31407BFEF7E6
:1085400017FB0028D8DA012223492846FFF7D2FC7E
:10855000D2E7254B1B6813F0010F3FF4FDAE00BEC0
:10856000FAE61D4A92F82E208A427FF4F5AE0D2BD2
:108570007FF4F2AE184BDB7B282B0AD02A2B23D0BA
:108580001A4B63B1144B03F10F01587BAFF300801A
:1085900005E0174B1BB1104B587BAFF300800E4A20
:1085A000002382F830301F2392F82F10284602F063
:1085B000A3F900287FF4D0AE0B4B1B6813F0010F1A
:1085C0003FF4D1AE00BECEE60A4B002BE7D0024B03
:1085D000587BFEF71DFBE2E7187800205553424315
:1085E0005553425318760020F0ED00E000000000E3
:1085F00000000000116C02001A4B93F82E10284660
:1086000002F014FA00287FF4AEAE164A9368926B1B
:10861000934203D91349097BC90918D19B1A1149FF
:108620008B62032381F830300D2301F1200291F891
:108630002E10284602F060F900287FF494AE0A4B11
:108640001B6813F0010F3FF48EAE00BE8BE6054BA6
:1086500093F82E10284602F099F9012083E60120B4
:1086600081E600BF18780020F0ED00E010B5044668
:108670008178002002F018F900B910BD201D01F02A
:1086800006FD3F2807D9402304F5A672A1780020F3
:1086900002F032F9F1E7A178002002F019F9ECE7D5
:1086A00070B5054601F008FF18B9002242B9002054
:1086B00070BD01F009FF08B90122F7E70022F5E7D4
:1086C0004FF4E67303FB05F31833224C1C44204699
:1086D00001F0C0FC08B90020EAE71E4A4FF4E67337
:1086E00003FB05235978002002F0DEF808B90020CA
:1086F000DEE74FF4E67606FB05F606F5C473154E85
:108700001E44043640223146204601F0D6FC044681
:10871000A8B1104B4FF4E67000FB053023463246FB
:108720004178002002F0E8F838B90B4B1B6813F0D1
:10873000010F00D000BE0020BAE72046B8E7054B85
:108740004FF4E67202FB05335978002002F0C0F8BE
:108750000020ADE758780020F0ED00E02DE9F04171
:1087600082B04FF4E67200211F4894F047F90026CA
:1087700016B102B0BDE8F0811B4D4FF4E67404FB66
:1087800006F404F1280129442F194FF00008CDF810
:108790000080012340220431381D01F024FC04F143
:1087A0006801294404F11800CDF80080012340221B
:1087B0000431284401F017FC04F1A80129440431D4
:1087C00001207CF01BFEC7F81080786104F1F801ED
:1087D0002944043101207CF011FE7862C7F828801A
:1087E0000136F6B2C4E700BF5878002070B5002407
:1087F00004B170BD094E4FF4E67505FB04F5701920
:1088000000237351043001F07DFC05F11800304461
:1088100001F078FC0134E4B2EAE700BF58780020A8
:108820004B79FF2B5AD1F0B583B006460D460C7834
:108830000C44A318002252B10027002F50D0AA7870
:108840003A702A79CAB9601B80B203B0F0BD1746EE
:1088500024484FF4E67101FB0201497829B94FF42D
:10886000E67101FB0201897811B10132D2B2E2E76F
:108870004FF4E67101FB0707DFE76178052904D0B3
:108880009C4202D221780C44F7E77B1C0193BB1C6D
:10889000009302232146304601F0C8FF90B12B79A6
:1088A000C3EBC3031C44BB78A3B97B78002BCAD0AD
:1088B0000C48381A80100C4B03FB00F0C0B2FFF7D5
:1088C000EFFEC0E7094B1B6813F0010F00D000BE9C
:1088D0000020BAE73846FFF7C9FEE6E700207047F8
:1088E0000020B2E758780020BBA4F261F0ED00E070
:1088F00038B5194D002464BBAA788A4207D068783D
:10890000884204D00134E4B205F5E675F3E78A4203
:1089100004D06A788A4211D001201BE09AB205F592
:10892000A671281D01F0E9FB0C4B13B12046AFF3F3
:1089300000802846FFF79AFE01200BE0084A1AB192
:1089400099B22046AFF300802046FFF7A9FE012030
:1089500000E0002038BD00BF587800200000000073
:10896000000000000268C08810447047C28842B10D
:10897000037803EB830103EB41030349C858104418
:1089800070470020704700BF247A0020884205D23B
:108990004378934202D003781844F7E7704788423F
:1089A0000CD210B44478944205D09C4203D0047891
:1089B00020448842F6D35DF8044B704770472DE998
:1089C000F0410C4617461E46DDF8188005E0057894
:1089D0003A4621462844FFF7D9FFA04206D28178C3
:1089E000B142F4D1C3784345F1D104462046BDE8F5
:1089F000F08170B50C468678A0420AD283789E42F8
:108A000007D105780B23042221462844FFF7C7FF2E
:108A1000F2E770BD0346084601E01A78134483422A
:108A200005D25A78052A03D0042AF6D101E070470E
:108A30001846704738B50D460478C3891C44044471
:108A400005E00378242221461844FFF79FFFA04247
:108A500008D28378023BDBB2052BF2D8C378AB4255
:108A6000EFD10446204638BD2DE9F04104460769A0
:108A700041697F1A90F850608369BD199D4200D307
:108A80001D46B54209D2104B1B6813F0010F00D0F0
:108A900000BE00252846BDE8F081A5EB060806F1DA
:108AA0005000E36842461944204493F07FFF626916
:108AB00042446261761BFE42ECD194F8513043F09F
:108AC000020384F85130E5E7F0ED00E02DE9F041D4
:108AD00082B080460D460F688E883E44BB78009277
:108AE000042231463846FFF76AFF864230D90446F1
:108AF000037D012B0CD80078E18901446618637A64
:108B0000184420442379C3B1012B09D0002020E070
:108B1000114B1B6813F0010F00D000BE002018E0BD
:108B200005223146FFF732FFB04201D3002010E0AA
:108B30000146404601F050FE18B1E41BEC800120D4
:108B400007E0054B1B6813F0010F02D000BE00E0E8
:108B5000002002B0BDE8F081F0ED00E070B50646FF
:108B60000D460846FFF7FEFE03460278417A11449F
:108B70000844D9890A449C181B7923B90023AB7196
:108B8000EB71012070BD05222146FFF7FFFEA042D8
:108B900007D3064B1B6813F0010F00D000BE002066
:108BA000F0E78178304602F049FAE7E7F0ED00E0BF
:108BB00038B515465488240A012C0AD0022C61D0FD
:108BC000484B1B6813F0010F00F08A8000BE07209D
:108BD00038BD5278812A2DD0862A43D0012AEFD180
:108BE000012903D0022916D00020F1E7EA88012AE2
:108BF00001D0FF20ECE703EB830203EB42030833D1
:108C0000394A1A4401230232294602F091FA002817
:108C10005CD00020DCE7354A0AB90020D8E703EB36
:108C2000830203EB4201304A0A44917A1846AFF3BB
:108C30000080CDE7012901D00020C9E7EA88012A98
:108C400001D0FF20C4E703EB830203EB42030833A8
:108C5000254A1A4401230232294602F069FAB8B3C0
:108C60000020B5E7012901D00020B1E7EB88012BF6
:108C700001D0FF20ACE71E4A294602F059FA48B35A
:108C80000020A5E75278812A05D0862A98D10129AB
:108C900014D000209CE7012901D0002098E703EBC5
:108CA000830203EB420308330F4A1A4401231A4498
:108CB000294602F03DFA78B1002089E701230D4AE8
:108CC000294602F035FA48B1002081E7FF207FE70E
:108CD000FF207DE7FF207BE7FF2079E7FF2077E794
:108CE000072075E7F0ED00E0247A00200000000086
:108CF00086270C0085270C0070B582B00546144607
:108D000052780A2A09D00B2A27D0264B1B6813F069
:108D1000010F45D000BE072002E0012902D000204B
:108D200002B070BDE288012A15D103EB830003EB8A
:108D300040031D481844FFF715FE60B1C3788DF855
:108D4000073001230DF107022146284602F0F0F911
:108D500008B10020E4E7FF20E2E7012901D000206C
:108D6000DEE7E288B2B903EB830003EB40030E4E6B
:108D70001E4431462846FFF7F1FE68B1628831464D
:108D80002846FFF7A3FE48B12146284602F0B6F96F
:108D90000020C5E7FF20C3E7FF20C1E7FF20BFE7B2
:108DA0000720BDE7F0ED00E0247A002038B5147804
:108DB000C4F3411514F0600F03D0012D04D0072037
:108DC00038BDFFF799FFFBE79488240A0DD003EB29
:108DD000830003EB400307481844FFF7C3FD214617
:108DE000FFF728FE20B10020EAE7FFF7E1FEE7E702
:108DF0000720E5E7247A0020F8B50D46FFF7B6FD19
:108E0000AB7890B31E460446027B93422DD823B91B
:108E1000012A00F2DB800126AE70002301222A72B3
:108E20006B72AB72EB72AA73EB732B746B746FF093
:108E30003F01A9766FF00301E9766FF064012977AD
:108E40006A770322AA770122EA7785F8202085F83D
:108E5000212085F82230082385F823302078B4F8C3
:108E60000D7007442744044411E05C4B1B6813F069
:108E7000010F00D000BE0020F8BDE3789E4213D061
:108E80002078242239462044FFF780FD0446A7427B
:108E900009D9A378042BF0D0062BEED00C2BECD004
:108EA000112BEDD1E9E73C46A74206D0A378042B6D
:108EB0000BD0062B0DD00020DEE7484B1B6813F0CB
:108EC000010F00D000BE0020D6E701232B73002342
:108ED0006B73EE7823799E4207D81EB9012B77D8A1
:108EE0000126EE702078204410E03C4B1B6813F004
:108EF000010F00D000BE0020BEE7C3789E4210D014
:108F00000378242239461844FFF740FD874207D9E9
:108F10008378052BF1D0072BEFD0112BF0D1ECE7A4
:108F2000384687422ED0D5F8123033B9A278042AB9
:108F300030D0062A39D0C5F81230696861B9427E4E
:108F4000012A47D82AB9D0F81E10D0F81A20914229
:108F500042D1D0F81A106960214AA2FB0102520BDB
:108F600042F20F70814229D91344013BB3FBF2F363
:108F70000233B3F5807F01D94FF48073C5F8163002
:108F8000012079E7154B1B6813F0010F00D000BEDC
:108F9000002071E7B0F80520B0F8073003FB02F2BB
:108FA000637D03FB02F3DB08C5E7B0F80520B0F8EA
:108FB000073003FB02F31B01DB08BCE7074B1B6810
:108FC00013F0010F00D000BE002055E7012053E749
:108FD000012051E701204FE701204DE7F0ED00E0CF
:108FE0005917B7D138B5044600214177816100F1A6
:108FF0001E053022284693F001FD29462046FFF742
:10900000FBFE38BD2DE9F04F83B081460D469246F8
:109010000B7803EB830203EB4203494A52F80380C7
:109020000024012C0ED805EB44031B8953B14344A3
:109030009978484602F002F805EB440300221A81B1
:109040000134EEE70023EB602B616B6168884044DC
:10905000AF8847448378CDF800A004223946FFF753
:10906000AEFC0446874261D990F804B0BBF1020F10
:109070000CD8A0EB0803EB80BAF1000F02D16B7F94
:10908000012B0BD120782044002629E02D4B1B68B2
:1090900013F0010F00D000BE002348E02846FFF780
:1090A000A1FF03460028EDD141E0264B1B6813F0D9
:1090B000010F00D000BE002339E0C37803F00303A2
:1090C000022B38D12146484601F086FB0346F8B111
:1090D000A4EB080205EB46031A81013620782044F0
:1090E0005E451CD23946FFF795FC04468742DCD921
:1090F000AA69BAF1000FE0D0C37803F00303012B93
:10910000E0D18388C3F30A039342DBD200230EE04D
:109110000C4A126812F0010F09D000BE07E0BAF144
:10912000000F0AD002236B77012300E000231846CA
:1091300003B0BDE8F08F0023F9E70123F7E700BF94
:10914000247A0020F0ED00E030B583B005461446E7
:109150001F484FF4A87202FB030063780A2B09D062
:109160000B2B20D01B4B1B6813F0010F2ED000BE21
:1091700007201BE0012901D0002017E0E388012B24
:109180000FD1FFF7F3FB60B1C3788DF807300123EF
:109190000DF107022146284601F0CAFF08B1002060
:1091A00004E0FF2002E0012902D0002003B030BD1E
:1091B000628801462846FFF725FF28B12146284648
:1091C00001F09CFF0020F1E7FF20EFE70720EDE72B
:1091D000307A0020F0ED00E02DE9F8430D4614460A
:1091E00092F80290B9F1000F34D1832906D0872973
:1091F0000AD0822908D00020BDE8F883FFF7B6FB2B
:1092000020B1037BA37001E00123A370002301229E
:1092100022726372A372E37222736373A273E373A5
:10922000237463746FF03F01A1766FF00301E17660
:109230006FF06401217762770322A2770120E07743
:1092400084F8200084F8210084F82230082384F870
:109250002330D1E7D778002F75D1FFF787FB06467B
:1092600030B10078B6F80D7007443744064411E079
:10927000864B1B6813F0010F00D000BE0020BBE737
:10928000F378994513D03078242239463044FFF7DB
:109290007DFB0646B74209D9B378042BF0D0062BE4
:1092A000EED00C2BECD0112BEDD1E9E73E46832D0F
:1092B00005D0872D05D0822D0ED000209CE7357972
:1092C0000BE0B378042B03D0062B03D0002093E7E8
:1092D000B57D02E0B57900E00125E57030783044D5
:1092E00008E0C3789D420FD0037824223946184401
:1092F000FFF74CFB874208D98378052BF1D0072B69
:10930000EFD0112BF0D1ECE70746B378042B03D054
:10931000062B0FD000206FE7B7F80520B7F807300D
:1093200003FB02F2737D03FB02F3DB08C4F8123087
:10933000012061E7B7F80520B7F8073003FB02F317
:109340001B01DB08F2E7D2F80480B8F1000F40F00F
:109350009980FFF70BFB034630B10078B3F80D603E
:1093600006441E44184410E0484B1B6813F0010FDC
:1093700000D000BE00203FE7C378994512D00378A3
:10938000242231461844FFF701FB864209D983782D
:10939000042BF1D0062BEFD00C2BEDD0112BEED1FE
:1093A000EAE730460378184408E0C3789F420FD0BC
:1093B0000378242231461844FFF7E8FA864208D998
:1093C0008378052BF1D0072BEFD0112BF0D1ECE7F0
:1093D0000646823D052D57D8DFE805F01F033756B6
:1093E0005630737EB3B1053306EB8303D3F80280A6
:1093F000D6F81A30264AA2FB03235B0BC4F804807C
:10940000B8F1000F2CD10023A375E37523766376A2
:109410000120F1E6D6F81E80EAE7737E5BB10533E2
:1094200006EB8303D3F80230D6F81A80184AA2FB61
:1094300003235B0BE2E7D6F81E30F5E7D6F815807C
:10944000134BA3FB08235B0BD8E7737E33B9D6F825
:1094500022800F4BA3FB08235B0BCFE74346CDE7EE
:10946000D4F8122043B9931CB3F5807F01D94FF48F
:109470008073C4F81630CBE71A44013AB2FBF3F319
:109480000233F1E70120B7E60020B5E6F0ED00E099
:109490005917B7D12DE9F0418CB0074615461E4645
:1094A000B84B4FF4A87000FB063C5488240A022CE9
:1094B00000F0F180062C0AD0012C32D0B24B1B6890
:1094C00013F0010F00F0A58100BE0720A2E1537840
:1094D000812B05D0862BF1D1012917D0002099E1ED
:1094E000012901D0002095E14FF4A87202FB06F299
:1094F0001832A44B1A44012304322946384601F09D
:1095000017FE002800F06B81002083E101239F4AB1
:109510002946384601F00CFE002800F06281002048
:1095200078E1984A4FF4A87303FB06235B7F2BB1C5
:109530004FF4A87303FB062300225A776C78012CA2
:109540000FD063B2002BB9D0872CB7D8812CB5D3FC
:10955000813C062CB2D8DFE804F02C464646758BD9
:109560004600012903D0022913D0002052E14FF414
:10957000A87303FB06F31833824A1A4430230632D9
:109580002946384601F0D4FD002800F02C81002047
:1095900040E14FF4A87303FB06F31833794A1344F0
:1095A000991D6046FFF728FC002800F01E8100206E
:1095B00030E1012901D000202CE1EB88002B00F0E4
:1095C00016814FF4A87303FB06F318336D4A1A444F
:1095D000302306322946384601F0AAFD002800F063
:1095E0000881002016E1012901D0002012E1EB885A
:1095F0000BB9FF200EE1634B4FF4A87808FB063649
:1096000006F11E04EE4606F14E08764620686168B3
:10961000A268E3680FC61034B6464445F5D16A46E1
:1096200069786046FFF7D8FD08B90820F2E03023DA
:109630006A462946384601F07BFD08B10020E9E082
:10964000FF20E7E0012901D00020E3E0EB88022BB6
:1096500001D0FF20DEE03023ADF8003002236A465F
:109660002946384601F064FD0028F2D00020D1E000
:10967000012901D00020CDE0EB88012B01D0FF2093
:10968000C8E0434A2946384601F052FD002800F060
:10969000B2800020BEE05378852B7DD008D8012B06
:1096A0000ED0812B7FF40AAF012957D00020B1E002
:1096B000862B7FF403AF012900F084800020A9E00D
:1096C000012903D0022913D00020A3E04FF4A8738E
:1096D00003FB06F318332B4A1A443023063229467B
:1096E000384601F025FD002800F08780002091E039
:1096F0004FF4A87303FB06F31833224C23449C1D3C
:1097000021466046FFF778FB002878D01D4A4FF4C9
:10971000A87303FB06235A6B9A611E4B63B1194869
:109720004FF4A87303FB06F3C11822464978C05CC6
:10973000AFF30080002864D112494FF4A87303FBF3
:1097400006F3CA18012050770020D06010615061E4
:109750005033CA180224CC5450705BE0D388002BDD
:1097600051D04FF4A87303FB06F31833054A1A448B
:10977000302306322946384601F0DAFC002844D06E
:10978000002047E0307A0020F0ED00E085270C0053
:1097900086270C0000000000012901D0002039E0DC
:1097A000D388022B01D0FF2034E03023ADF8003005
:1097B00002236A462946384601F0BAFC0028F2D056
:1097C000002027E0D388012B01D0FF2022E0134A9C
:1097D0002946384601F0ACFCC8B100201AE0FF2051
:1097E00018E0FF2016E0FF2014E0082012E0FF2020
:1097F00010E0FF200EE0FF200CE0FF200AE0082030
:1098000008E0002006E0FF2004E0FF2002E0FF2047
:1098100000E007200CB0BDE8F08100BF86270C00F7
:1098200038B51478C4F3411514F0600F03D0012D3E
:1098300004D0072038BDFFF787FCFBE79488240A93
:1098400002D1FFF727FEF5E70720F3E710B5002365
:109850000BB1002416E00D4C03EB830203EB420234
:10986000A0180021A1504160C0F807100133EFE7B4
:1098700050220021064B4FF4A87000FB043093F0F7
:10988000BDF80134002CF3D010BD00BF247A0020B5
:10989000307A002010B500230BB1002416E00D4CE7
:1098A00003EB830203EB4202A0180021A1504160A8
:1098B000C0F807100133EFE750220021064B4FF4A8
:1098C000A87000FB043093F099F80134002CF3D019
:1098D00010BD00BF247A0020307A00202DE9F04F1F
:1098E00085B002904B790E2B40F0A3800C468B790B
:1098F000012B40F0A280CB79012B40F0A0804FF0EB
:109900000008404668B180464FF0000AB8F1000FE9
:109910001BD04C4B1B6813F0010F00D000BE002081
:1099200088E000EB800300EB43034749CB5823B1A9
:1099300000F101085FFA88F0E4E7804600EB80035D
:1099400000EB430A404B9A44E0E7A518CAF80040F0
:10995000AAF80420002251460298FFF7B7F808B988
:10996000002067E05046FEF7FDFF90F814B029464E
:109970002046FFF73EF807464646CDF80CA0AA461B
:1099800025E032494FF4A87202FB031252882ABB29
:109990002E4A4FF4A87101FB0325039A3244137237
:1099A000FDB185F800806E70A7EB04091FFA89F9F4
:1099B000A5F8029051463846FFF71BF80746031BEF
:1099C0009BB2AB8000226A779EB10136F6B2B345F6
:1099D00028D94346002BD4D00025E1E70133DBB280
:1099E000F8E7184B1B6813F0010F00D000BE0020F1
:1099F00020E0BBF1010FE8D104EB090004EB0309FF
:109A000001230093837804224946FEF7D8FF81455D
:109A1000DBD1002229460298FFF7F4FA0028D4D1BE
:109A2000002007E0DDF80CA03C1BA0B2AAF804401F
:109A300000E0002005B0BDE8F08F0020FAE700202C
:109A4000F8E700BFF0ED00E0247A0020307A002033
:109A5000F8B5137803F01F03012B47D19388DBB2CD
:109A600000242CB184B10024DCB19CB300203EE082
:109A700004EB840504EB45051F4E755915B1AD780F
:109A80009D42EFD00134ECE72346FFF78FF904EB5A
:109A9000840304EB4304184B1C44607240B3002061
:109AA00025E0164E4FF4A87505FB04656F887FB15D
:109AB0004FF4A87606FB04F6104DAD5D05EB850668
:109AC00005EB46050C4E75593D44AD789D42CCD012
:109AD0000134C9E72346FFF7A3FE084B4FF4A872F1
:109AE00002FB0434207728B1002000E00020F8BDFC
:109AF0000120FCE70120FAE7247A0020307A0020D8
:109B000070B506460D4600238BB143BB62692369DD
:109B10009A422CD30023E36023616361214B002B25
:109B20003ED061782078AFF3008001201EE01E4A0D
:109B30004FF4A87404FB0324208970B14FF4A8717A
:109B400001FB03F1525C02EB820102EB4102174977
:109B50008A5802449278AA42D7D00133D4E7144BF2
:109B60001B6813F0010F00D000BE002070BD294615
:109B7000304600F099FE0028F8D02046FEF774FF2A
:109B800083B204F150022946304600F0B5FE0028A9
:109B9000ECD1074B1B6813F0010FE7D000BEE5E7DF
:109BA0000120E3E700000000307A0020247A002042
:109BB000F0ED00E003460A4490B2814202D8B0EBD7
:109BC000430F03DB5B009BB2C01A80B2704770B5D5
:109BD00006460846B4889A420ED3D51AADB2F5B1FE
:109BE000AC4204D294420DD8131B9BB273819C42A9
:109BF0000BD81B1B9BB2FAE7D51A610011FA85F549
:109C0000ADB2ECE7A3189BB2F0E73168F288C2F37B
:109C10000E0202FB031192F0C9FE012070BD00206C
:109C2000FCE730B583B005469408631E9BB224B1AF
:109C300051F8044B2C601C46F7E712F0030201D1E7
:109C400003B030BD0023019301A892F0AFFE019B49
:109C50002B60F5E72DE9F04383B006460F469DF8EB
:109C600028108588EC1A1FFA84FC5D1B1544B0F897
:109C700006E0CEF30E0914FB09F4A4B215FB09F5B6
:109C8000ADB2006809FB030821B1012916D003B069
:109C9000BDE8F083944506D309FB02F241463846FD
:109CA00092F084FEF3E722464146384692F07EFE6B
:109CB0002A463168381992F079FEE8E7944507D3CF
:109CC00019FB02F292B241463846FFF7AAFFDEE7DF
:109CD00024F003091FFA89F94A4641463846FFF73E
:109CE000A0FFC84414F0030428D0C4F1040080B2DB
:109CF000A84228BF2846C0B22D1AADB20023019356
:109D000001AB04E018F8012B03F8012B0C46611E8F
:109D1000C9B2002CF6D13168421ED2B228B111F876
:109D2000010B03F8010B1046F6E7019B3B60002D89
:109D3000ADD02A463846FFF774FFA8E73168F6E74A
:109D4000F0B583B01E46BDF8203084889E4212D301
:109D5000F51AADB2F5B1AC4205D2B44211D8331BFD
:109D60009BB243812546954200D315469C420BD8B1
:109D70001B1B9BB2FAE7F51A670017FA85F5ADB21F
:109D8000E8E7A3199BB2ECE79DF8242000922A464D
:109D9000FFF760FF284603B0F0BDF0B583B004467E
:109DA0000D4616461F46006918B14FF0FF317BF093
:109DB0001DFC2389628992B2019700929BB23246C0
:109DC00029462046FFF7BCFF05466189024689B255
:109DD000A088FFF7EFFE6081206920B100231A46BA
:109DE00019467BF071FA284603B0F0BD10B582B079
:109DF0009408631E9BB224B10C6840F8044B1C46C7
:109E0000F7E712F0030201D102B010BD0B68019315
:109E100001A992F0CBFDF7E72DE9F04383B00646A8
:109E20000F469DF828108588EC1A1FFA84FC5D1BEC
:109E30001544B0F806E0CEF30E0914FB09F4A4B201
:109E400015FB09F5ADB2006809FB030821B1012932
:109E500016D003B0BDE8F083944506D309FB02F2A7
:109E60003946404692F0A2FDF3E722463946404685
:109E700092F09CFD2A463919306892F097FDE8E788
:109E8000944507D319FB02F292B239464046FFF7D8
:109E9000ADFFDEE724F003091FFA89F94A46394687
:109EA0004046FFF7A3FFC84414F003021FD0C2F1DD
:109EB0000404A4B2AC4228BF2C46E4B22D1BADB2C0
:109EC0003B68019301AB04E013F8012B08F8012B68
:109ED0000A46511EC9B2002AF6D13068621ED2B2BB
:109EE00034B113F8011B00F8011B1446F6E7306883
:109EF000002DAED02A463946FFF778FFA9E72DE9B5
:109F0000F04383B09146002A6BD0044688461F4632
:109F1000C06818B14FF0FF317BF068FB2689B6B2FC
:109F2000618989B2E379DB0918D1A3888E420DD308
:109F3000751AADB2AB420FD95D1BADB24D4528BF0E
:109F40004D46002D42D0A288334631E0751A5900A3
:109F500011FA85F5ADB2EDE70025EFE7A5884D458F
:109F600009D8FFB9A9EB0509E388C3F30E0303FB86
:109F700009880E46E5E78E420ED3731A9BB24B4416
:109F8000B3EB450F10DBA5EB090292B22846FFF7B1
:109F900011FE06464D46D4E7731A6A0012FA83F39F
:109FA0009BB2ECE70E46CCE74D46CAE79B1A9BB244
:109FB0009A42FBD900972A4641462046FFF72CFFDC
:109FC0002A463146A088FFF7F5FD2081E06820B1E0
:109FD00000231A4619467BF077F9284603B0BDE8FE
:109FE000F0831546F9E7B2F5004F2FD8F8B50446CF
:109FF0000F4615461E46C06818B14FF0FF317BF082
:10A00000F5FA206918B14FF0FF317BF0EFFA2760C5
:10A01000A580E28866F30E02E280C2F307229DF873
:10A02000183063F3C712E271002363812381E06873
:10A0300018B11A4619467BF047F9206940B1002350
:10A040001A4619467BF040F90120F8BD0020704700
:10A050000120FAE70246808813899BB2528992B2A6
:10A06000934205D39B1A9BB2984228BF184670476B
:10A070009B1A420012FA83F39BB2F5E7028992B26F
:10A0800043899BB29A4214BF002001207047828806
:10A0900003899BB2408980B2834206D31B1A9BB2CC
:10A0A0009A4208D9D31A98B270471B1A500010FA76
:10A0B00083F39BB2F4E70020704708B50023FFF755
:10A0C0006CFE08BD38B504460D46006918B14FF066
:10A0D000FF317BF08BFA228963899BB292B22946C9
:10A0E0002046FFF774FD0546206920B100231A467B
:10A0F00019467BF0E9F8284638BD08B50023FFF77C
:10A10000FEFE08BD10B50446C06818B14FF0FF311F
:10A110007BF06CFA206918B14FF0FF317BF066FAE2
:10A12000002363812381E06818B11A4619467BF049
:10A13000CBF8206920B100231A4619467BF0C4F8F9
:10A14000012010BD38B504460D46C06818B14FF067
:10A15000FF317BF04BFA206918B14FF0FF317BF0F3
:10A1600045FAE37965F3C713E371E06820B1002392
:10A170001A4619467BF0A8F8206920B100231A4638
:10A1800019467BF0A1F8012038BD000038B505461E
:10A1900000240BE09B1A03EB4302184B03EBC203B2
:10A1A0009BB15B68284698470134E4B2144B1A7897
:10A1B000511D2346A1420FDBA242EBD9114B1B6874
:10A1C00004EB440203EBC203EAE70F4B1B6813F0F6
:10A1D000010F12D000BE10E00C4C382200212046A6
:10A1E00092F00CFC4FF0FF336360A360E3602361E7
:10A1F0006361A361E3612362A38438BD94270C00EB
:10A20000847B0020807B0020F0ED00E0D87B0020E4
:10A2100008B5FFF7BBFF00F0CBFF08BD70B50546E2
:10A220000C461646C86800F0CDFFE36832460121AF
:10A230002846984770BD00002DE9F04F83B0824654
:10A24000481EC0B2FCF7B2FB20B10346427801922F
:10A25000022A09D0544B1B6813F0010F00D000BE36
:10A26000002003B0BDE8F08FC179C1F340144F481E
:10A27000027864F30412C1F3801161F34512027095
:10A2800003F109085A8813440093009B984580F015
:10A29000888098F801300B2B0BD04FF0010B98F809
:10A2A0000130042B0BD1009BA3EB0807BFB20024A5
:10A2B00048E098F803B098F800309844EFE73A4B3C
:10A2C0001B6813F0010F00D000BE0020C9E7A9EB06
:10A2D000030303EB4303364D05EBC30540E0324B6C
:10A2E0001B6813F0010F00D000BE0020B9E7AB6877
:10A2F000304A934205D0304A934240D1DDF804B051
:10A300003DE0DDF804B0F6E7274B1B6813F0010FC2
:10A3100000D000BE0020A4E723463246414627482D
:10A3200001F0E2FFB044264B1B7805339945ACDDC4
:10A330001D4B1B6813F0010F00D000BE002090E7FA
:10A340000134E4B21E4B1B785A1DA146A242EADB3F
:10A35000A342BCD91B4B1B6804EB440503EBC505AA
:10A36000002DBCD0AB683A46414650469847082875
:10A37000E6D98742E4D30646BBF1010FB7D00022ED
:10A380009345C9D998F802301344DBB20749194400
:10A390000979FF29B8D105490B441C710132D2B2A9
:10A3A000EEE701205DE700BFF0ED00E0D87B002084
:10A3B00094270C00C970020095790200EC7B002004
:10A3C000847B0020807B002038B505460C464B88F6
:10A3D0001A0AD8B2531E0E2B57D8DFE803F008260E
:10A3E0003F56564A26565656565656561100FCF7B4
:10A3F000D9FA024612232146284600F099FE45E08C
:10A40000284B002B43D0FCF77FFC024628B1438841
:10A410002146284600F08CFE38E0234B1B6813F0E1
:10A42000010F00D000BE002030E0022A0CD01F4BEC
:10A430007BB3AFF3008050B91B4B1B6813F0010FC7
:10A4400000D000BE002021E0FCF7B0FAF3E743881B
:10A4500002462146284600F06BFE17E0A188FCF773
:10A46000ABFA0246B8B103782146284600F060FEF8
:10A470000CE00F4B8BB1AFF30080024678B103784C
:10A480002146284600F054FE00E0002038BD0020A0
:10A49000FCE70020FAE70020F8E70020F6E70020BC
:10A4A000F4E700BF096D0200F0ED00E000000000DD
:10A4B0000000000070470000024B5878003818BFB9
:10A4C00001207047D87B0020024B1878C0F3800031
:10A4D000704700BFD87B0020024B1878FF3818BFA8
:10A4E0000120704714610020F0B583B00546FFF7E6
:10A4F000F3FF064610B1304603B0F0BD382200210C
:10A500002E4892F07BFA2E4901207AF077FF2D4BEE
:10A510001860C8B12C4C0023009304F10C0362684E
:10A52000618820887AF09BFE0746A1687BF016F9C7
:10A53000264B1F607FB1264B23B12648AFF3008026
:10A54000254B1860002418E0244B1B6813F0010F02
:10A55000D1D000BECFE7214B1B6813F0010FCAD04A
:10A5600000BEC8E79B1A03EB43021D4B03EBC2037B
:10A5700093B11B6898470134E4B2164B1A78511D09
:10A580002346A1420FDBA242ECD9134B1B6804EB1C
:10A59000440203EBC203EBE7104B1B6813F0010FFF
:10A5A000A9D000BEA7E70F4B1D70284601F058F850
:10A5B000284601F057F801269DE700BFD87B002010
:10A5C000887B0020107C0020B8600020147C0020D4
:10A5D00000000000847B0020807B0020F0ED00E084
:10A5E00094270C001461002030B585B005460C4658
:10A5F0004378023B042B13D8DFE803F0033A242FFF
:10A600009300554B1A786FF300021A701A786FF3A3
:10A6100041021A70002159701A7861F382021A708F
:10A620004E4B1868002C40F0828000234FF0FF3220
:10A6300029467AF049FE224669782878FFF73AFFE2
:10A6400005B030BD444B1B7813F0010FF8D0424ADF
:10A65000137843F004031370E2E73F4B1B7813F0C9
:10A66000010FEDD03C4A13786FF382031370D7E7E4
:10A67000394B1B7813F0040F1ED0374A13786FF351
:10A6800082031370002301930293039303788DF8E0
:10A69000043005238DF80530304B186871B900235C
:10A6A0004FF0FF3201A97AF00FFE22469DF8051007
:10A6B0009DF80400FFF7FEFE00241BE0002300933A
:10A6C0006A4601A97AF0A9FE009B002BEDD0244B2D
:10A6D0004FF080525A6040BFBFF34F8FBFF36F8F70
:10A6E000E3E79B1A03EB43021E4B03EBC2030FE0AD
:10A6F0000134E4B21C4B1A78511D2346A1429FDB62
:10A70000A242EED9194B1B6804EB440203EBC203CF
:10A71000002BEDD05B69002BEAD069682878984758
:10A72000E6E70D4AD3780133DBB2D37078E7002334
:10A73000019301AA29467AF070FE019B002B3FF499
:10A740007AAF074B4FF080525A6040BFBFF34F8F34
:10A75000BFF36F8F6FE700BFD87B0020147C002011
:10A7600000ED00E094270C00847B0020807B00201B
:10A7700010B584B00023019308238DF805300290B2
:10A780000391134B1868144672B900234FF0FF323F
:10A7900001A97AF099FD22469DF805109DF8040064
:10A7A000FFF788FE04B010BD002300936A4601A99C
:10A7B0007AF033FE009B002BEDD0064B4FF0805219
:10A7C0005A6040BFBFF34F8FBFF36F8FE3E700BF07
:10A7D000147C002000ED00E038B5114B1D788B781B
:10A7E00003F07F03082B07D90E4B1B6813F0010FF2
:10A7F00000D000BE002038BD0C460B4B9978204697
:10A8000001F022FD30B9074B1B6813F0010FF2D0A5
:10A8100000BEF0E72146284600F048FFEBE700BF06
:10A8200014610020F0ED00E0D87B00202DE9F04716
:10A8300080460C4616461F46DDF82090DDF824A021
:10A84000002515E0174B1B6813F0010F00D000BE68
:10A8500000231846BDE8F087124A126812F0010F73
:10A86000F7D000BEF5E789F8003023781C440135A5
:10A87000AE4214DD6378052BE4D1E17801F00301E9
:10A88000B942DFD121464046FFF7A6FF0346002824
:10A89000E2D0A378DA09E6D08AF80030E5E70123B0
:10A8A000D7E700BFF0ED00E008B501F07F00400001
:10A8B00000EBD1102030044B1844044B19680630CB
:10A8C00001F072FC08BD00BFD87B0020107C002086
:10A8D00008B501F07F00400000EBD1102030044BA0
:10A8E0001844044B1968063001F08BFC08BD00BF0A
:10A8F000D87B0020107C0020F8B51A48007801F0C1
:10A900007F05194C04EB450404EBD1142034A479E1
:10A9100014F0010F07D0154B1B6813F0010F00D086
:10A9200000BE0020F8BDCE090F4C04EB45043444B2
:10A9300094F8267047F0010784F82670203400F060
:10A94000FBFF0028EED1A3796FF30003A371A37975
:10A950006FF38203A371054B1B6813F0010FE1D065
:10A9600000BEDFE714610020D87B0020F0ED00E09E
:10A9700001F07F02044B03EB420303EBD11191F88A
:10A98000260000F001007047D87B002038B5114B3D
:10A99000187801F07F05104B03EB450303EBD1134F
:10A9A00020339B7913F0020F00D038BDCC0901F0A1
:10A9B00057F8094B03EB4503234493F8262042F054
:10A9C000020283F8262093F8262042F0010283F841
:10A9D0002620EAE714610020D87B002038B5114B0F
:10A9E000187801F07F05104B03EB450303EBD113FF
:10A9F00020339B7913F0020F00D138BDCC0901F050
:10AA00005BF8094B03EB4503234493F826206FF3CF
:10AA1000410283F8262093F826206FF3000283F882
:10AA20002620EAE714610020D87B002001F07F0295
:10AA3000044B03EB420303EBD11191F82600C0F362
:10AA400040007047D87B00202DE9F04182B00546D8
:10AA50000C46002000F0B6FB237803F06003602B67
:10AA600014D0402B1CD0227802F01F02012A00F0E3
:10AA7000F280022A00F03881FAB1AB4B1B6813F068
:10AA8000010F00F0C68100BE002006E0A64B1B6847
:10AA900013F0010F00D000BE002002B0BDE8F0812D
:10AAA000A24B002B00F0A181184600F08BFB224640
:10AAB00001212846FCF72CF9EFE7202B0BD07BBBBC
:10AAC0006378092B00F2BE80DFE803F0A999BC8906
:10AAD000BC3284BC414EA388DBB20F2B00F28781CD
:10AAE000934A13441B79934A127893420DD2924AA7
:10AAF000116803EB430301EBC301002900F07B81E4
:10AB000022462846FFF78AFBC7E7511D9942C0F24B
:10AB100070819B1A03EB4303884901EBC301ECE707
:10AB2000814B1B6813F0010F00D000BE0020B4E77A
:10AB3000204600F04DFB6188C9B2284600F0A4FD14
:10AB40007B4A137843F0020313700120A5E7784B8A
:10AB50005B788DF8063001230DF106022146284668
:10AB600000F0E6FA012098E76688F6B2704B5B7851
:10AB7000DBB2B34207D06E4B5B7863B9BEB9704BA2
:10AB80000BB1AFF300806A4B5E702146284600F09F
:10AB9000B5FA012081E7284600F022FE644F97F8BD
:10ABA00002802846FFF7F2FA87F80280E6E731468E
:10ABB0002846FFF741FB28B1624B002BE3D0AFF3EF
:10ABC0000080E0E7584B1B6813F0010F3FF465AFBE
:10ABD00000BE62E721462846FFF7F6FB5DE7638883
:10ABE000012B01D0002058E7514A137843F00803A5
:10ABF00013702146284600F081FA01204DE7638852
:10AC0000012B01D0002048E7494B1A786FF3C302AB
:10AC10001A702146284600F071FA01203DE7444BA6
:10AC20001A78930803F00203C2F340121343ADF8FD
:10AC3000063002230DF106022146284600F078FA7C
:10AC400001202AE7384B1B6813F0010F00F0D58074
:10AC500000BE002021E7A388DBB20F2B00F2CF80DB
:10AC6000334A13441B79334A1278934225D2324A2D
:10AC7000116803EB430301EBC301002900F0C3801B
:10AC800022462846FFF7CAFA00287FF406AF237849
:10AC900013F0600F7FF401AF63780A3B012B3FF69E
:10ACA000FCAE002000F08EFA63780A2B10D021460B
:10ACB000284600F023FA0120EFE6511D9942C0F228
:10ACC000A0809B1A03EB43031C4901EBC301D4E7AB
:10ACD00000238DF8063001230DF106022146284697
:10ACE00000F026FA0120D8E6A288D1B202F07F0651
:10ACF000C2F3C012082E27D80D4800EB46000244CC
:10AD0000127D0C480078824226D20B48066802EB7E
:10AD1000420206EBC2065BB3002E76D022463146D5
:10AD20002846FFF77BFAB8E6F0ED00E0116D02006F
:10AD3000D87B0020847B0020807B002094270C009F
:10AD40000000000000000000334B1B6813F0010FEF
:10AD500000D000BE0020A0E6461D964206DB121A77
:10AD600002EB42022D4E06EBC206D4E70026D2E7E4
:10AD70006378012B18D0032B16D03BB1264B1B68F0
:10AD800013F0010F00D000BE002086E62846FFF732
:10AD90004DFEADF8060002230DF1060221462846BD
:10ADA00000F0C6F9012078E6628822B9012B18D09C
:10ADB0002846FFF7EBFD56B3224631462846FFF7FB
:10ADC0002DFA002000F0FEF9154B93F8273013F010
:10ADD00001007FF462AE2146284600F08FF9012081
:10ADE0005BE62846FFF7FAFDE5E7002055E6002080
:10ADF00053E6002051E600204FE600204DE60020FB
:10AE00004BE6002049E6002047E6002045E6012009
:10AE100043E6002041E600BFF0ED00E094270C007F
:10AE2000D87B002030B585B00446FFF755FB40BB0A
:10AE300005B030BD224600E0224601A928467AF03E
:10AE40004DFB0028F4D09DF80530013B072B00F2A4
:10AE5000DA80DFE813F008002900D800B300C4004E
:10AE600033006A00D1009DF80400FFF7D1F99DF886
:10AE70000820694B9A70694B18687AF05BFC0028CF
:10AE8000D6D0664B1D68B4F1FF3FD3D0002CD3D091
:10AE90004FF47A720023A002A10D91F0B5F9024699
:10AEA0000028CAD10122C8E79DF80400FFF7B0F9D5
:10AEB0005B4B002BDFD0AFF30080DCE7564AD37842
:10AEC000013BDBB2D370D378002BD4D11346127878
:10AED00042F001021A7093F826206FF3000283F803
:10AEE000262093F826206FF3820283F8262093F819
:10AEF00027206FF3000283F8272093F827206FF3B1
:10AF0000820283F8272002A99DF80400FFF79CFD28
:10AF10000028B0D100219DF8040000F0A1FD80219F
:10AF20009DF8040000F09CFDA5E79DF8081001F0D5
:10AF30007F00CD09384B03EB400303EBD11393F8AB
:10AF400026206FF3000283F8262093F826206FF363
:10AF5000820283F82620B8B12F4B03EB40032B4429
:10AF60001B7D304A1278934216D22F4A126803EBA7
:10AF7000430302EBC303CBB11D69039B9DF809207A
:10AF80009DF80400A84776E7039B9DF809209DF8EB
:10AF9000040000F02BF96EE7501D984206DB9B1A67
:10AFA00003EB4303214A02EBC303E4E7204B1B6896
:10AFB00013F0010F3FF43CAF00BE39E7164B1B788E
:10AFC00013F0010F3FF457AF1A4B002B3FF453AF70
:10AFD000114B1878C0F3C000AFF300804BE70E4B65
:10AFE0001B7813F0010F3FF446AF134B002B3FF4D7
:10AFF00042AFAFF300803EE7029B002B3FF43BAF34
:10B000000398984737E70A4B1B6813F0010F3FF48A
:10B0100032AF00BE2FE700BFD87B0020147C002099
:10B0200000000000847B0020807B002094270C001F
:10B03000F0ED00E0000000000000000038B5134B08
:10B040001878134BDBB101F07F05CC0900F00AFC46
:10B05000104B03EB4503234493F826206FF3410282
:10B0600083F8262093F826206FF3000283F8262029
:10B0700093F826206FF3820283F8262038BD064B12
:10B080001B6813F0010FF9D000BEF7E71461002030
:10B0900065B80200D87B0020F0ED00E0F8B5074667
:10B0A000134B9E89DD89741BA4B2402C28BF402419
:10B0B00093F90030002B08DB0021AE4213D00D4A7B
:10B0C00023463846FFF718FCF8BDAE4209D0084BBE
:10B0D0009968402C09D82246064891F067FC8021E7
:10B0E000EBE78021E9E70022EAE70020ECE700BF78
:10B0F000D87C0020EC7C00207047000038B5054665
:10B100000B460A4A14460868496803C40021916046
:10B11000D181918193F900308B4200DB80210023A3
:10B120001A462846FFF7E8FB38BD00BFD87C002050
:10B13000F8B507460C461C4D2E460868496803C6FC
:10B14000AA600021E981E1888B4228BF0B46AB81D0
:10B15000E188A1B103B152B13846FFF79FFFC8B9EA
:10B16000124B1B6813F0010F14D000BE12E00F4BFE
:10B170001B6813F0010F00D000BE00200AE094F914
:10B180000030002B07DB802100231A463846FFF7EA
:10B19000B3FB10B1F8BD0021F6E7044B1B6813F0B8
:10B1A000010FF7D000BEF5E7D87C0020F0ED00E0FD
:10B1B000034B00221A605A609A60DA601A61704785
:10B1C000D87C0020014B1861704700BFD87C00205C
:10B1D0000146054B1A460068496803C200229A607E
:10B1E000DA819A81704700BFD87C002038B50546C7
:10B1F0001C46364B1B78DB09B3EBD11F14D03CB196
:10B20000334B1B6813F0010F00D000BE002038BD87
:10B210002E4C2146FFF770FF23691BB12246032104
:10B22000284698470120F2E7284B93F90030002B7D
:10B2300007DB264B9868002845D02246254991F027
:10B24000B5FB224AD38913FA84F39BB2D381916868
:10B2500021449160D288934201D03F2C27D81B4BC8
:10B260001B6923B1194A022128469847A8B1174BF8
:10B2700093F90030002B0EDB802100231A4628466C
:10B28000FFF73AFB0028C2D1114B1B6813F0010FE6
:10B29000BDD000BEBBE70021EFE70021284600F04B
:10B2A000DFFB8021284600F0DBFB0120AFE72846CA
:10B2B000FFF7F4FE0028AAD1054B1B6813F0010F1D
:10B2C000A5D000BEA3E70020A1E700BFD87C0020E6
:10B2D000F0ED00E0EC7C0020084B1A6804331B689A
:10B2E000082A01D000207047032B03D8DFE803F0C1
:10B2F000040404040020704701207047300100104E
:10B30000084B1A6804331B68082A01D000207047D4
:10B31000032B03D8DFE803F0040404040020704783
:10B3200001207047300100100A4B1A6804331B6873
:10B33000082A01D000207047022B07D0032B07D02A
:10B34000012B01D000207047012070470120704779
:10B35000012070473001001042DF704743DF704723
:10B3600044DF704712DF704700B583B043F2040337
:10B370001A68154B9A420ED04FF08042D2F80C3426
:10B3800003F00103D2F80C2412F4803F17D10020FF
:10B3900003B05DF804FB00238DF8043001A8FFF72B
:10B3A000E1FF9DF80430002BE6D00023019301A8B3
:10B3B000FFF7D6FF0198003818BF0120E8E70BB966
:10B3C0000020E5E70120E3E7DBE5B15100B583B0FC
:10B3D000FFF7CAFF78B943F204031A680E4B9A428A
:10B3E0000CD00E4B00221A601B680193019B4FF09A
:10B3F000804301221A6003B05DF804FB00238DF83E
:10B40000043001A8FFF7AEFF9DF80430002BE8D010
:10B41000FFF7A2FFEFE700BFDBE5B15100010040FD
:10B4200043F204031A680E4B9A4203D00D4B0122DB
:10B430001A60704700B583B000238DF807300DF116
:10B440000700FFF78FFF9DF807302BB9054B01224E
:10B450001A6003B05DF804FBFFF780FFF9E700BF57
:10B46000DBE5B1510400004001230360BFF36F8F9F
:10B47000BFF34F8F074B984203D0043B984200D054
:10B480007047BFF35B8F044B002283F82021BFF38A
:10B490005B8FF5E7507002402C7D002008B50C4A08
:10B4A0004FF00101BFF35B8FD2E84F3FC2E84C1F62
:10B4B000BCF1000FF8D1BFF35B8FDBB22BB10122DF
:10B4C00001460448FFF754F908BDFFF7CDFFFBE73D
:10B4D0004C7E00209DB4020010B5104A02EB4012D1
:10B4E000938AD18A89B25B1A9BB2118B8B4228BF97
:10B4F0000B4614690A4A00EB800102EB8101C1F896
:10B50000004600EB800102EB8102C2F80436054BD5
:10B5100003EB8000FFF7C2FF10BD00BF2C7D0020B1
:10B52000007002400470024070B5354A4FF00101CE
:10B53000BFF35B8FD2E84F3FC2E8441F002CF9D124
:10B54000BFF35B8FDBB2C3B9082834D12D4BD3F8DE
:10B55000C02412F4803F1CD12B4B03EB4013DB7A49
:10B5600003B34001284B1958264BC3F8A017C3F862
:10B57000A4272648FFF778FF41E0254B5A68C2F31D
:10B580000802003A18BF012201462248FFF7F0F8EE
:10B5900035E0BFF35B8F1C4B002283F82021BFF303
:10B5A0005B8F2CE0BFF35B8F174B002283F82021C9
:10B5B000BFF35B8F23E0134B00F5947253F8222006
:10B5C00092B2114D460105EB4014A188E488A4B263
:10B5D000091B89B28A4228BF0A46AC5900EB800198
:10B5E00003EB8101C1F8004700EB800103EB81030D
:10B5F000C3F80427084B03EB8000FFF735FF70BD4D
:10B600004C7E0020007002402C7D002048700240DB
:10B6100000ED00E01DB602002870024008B5C0B27F
:10B62000FFF782FF08BD0000BFF35B8F0A4B93F862
:10B630002031BFF35B8F33B9084B1B6813F0010F48
:10B6400009D000BE7047BFF35B8F034B002283F825
:10B650002021BFF35B8F70472C7D0020F0ED00E0D0
:10B6600070470000014B80225A60704700E100E003
:10B67000044B8022C3F88420BFF34F8FBFF36F8F3A
:10B68000704700BF00E100E0074BD3F80014D3F887
:10B6900000240A43C3F800240022C3F858214FF4C1
:10B6A0008002C3F8042370470070024070B48B78A6
:10B6B00003F07F02DE098C88C4F30A04500000EB1B
:10B6C000D315434800EB05100481C97801F003014C
:10B6D000012930D006BB02F10C04012000FA04F469
:10B6E0003C49C1F80443D1F8144590402043C1F8C7
:10B6F000140502F59472002041F82200354AC2F880
:10B70000183543F48073C2F80C35BFF36F8FBFF365
:10B710004F8F012070BC7047941C012101FA04F482
:10B720002C48C0F80443D0F8104501FA02F2224335
:10B73000C0F81025E2E7082A07D0274B1B6813F052
:10B74000010F00D000BE0020E4E7FEB9204BB3F8A3
:10B7500018311BB11F4B8022C3F81C251D4B002242
:10B76000C3F85021D3F8003313F4001F02D1194B52
:10B77000C3F85421174B4FF44012C3F80423D3F8F5
:10B78000142542F48072C3F81425BEE7114B002241
:10B79000C3F82C210E4BB3F808311BB10D4B80229E
:10B7A000C3F81C250B4BD3F8003313F4001F03D14F
:10B7B000084B0022C3F85421064B084AC3F804235F
:10B7C000D3F8102542F48072C3F810259DE700BF1E
:10B7D0002C7D002000700240F0ED00E00008200009
:10B7E00038B50546FFF744FF01241AE004F10C03C5
:10B7F000012202FA03F3A11C8A401343154AC2F83E
:10B80000083302EB84030021596004F10A0342F873
:10B8100023102022104800EB441091F0EFF801347F
:10B82000E4B2072CE2D90B4C0C4BC4F808330021CE
:10B83000C4F81C156162A1642022094891F0DEF869
:10B840000123C4F81435C4F810352846FFF70AFF61
:10B8500038BD00BF007002402C7D00200008300081
:10B860002C7E002010B401F07F03C909082B2CD0D6
:10B87000E1B903F10C04012202FA04F42C48C0F8E7
:10B880000843D0F814459A4024EA0202C0F814256F
:10B8900001EB4301274B03EB01110023CB72BFF3F4
:10B8A0006F8FBFF34F8F5DF8044B70479C1C0122D4
:10B8B00002FA04F41E48C0F80843D0F810459A4034
:10B8C00024EA0202C0F81025E2E71A4A02EB01124C
:10B8D0000020A2F80801F1B9154A4FF48010C2F80F
:10B8E0000803D2F8140520F48070C2F81405002073
:10B8F000C2F850010E4A0020C2F81C050D4AB2F8E9
:10B900001801B2F80821D042C2D1094A4FF4001000
:10B91000C2F80803BCE7064A4FF40060C2F8080307
:10B92000D2F8100520F48070C2F81005E2E700BFDD
:10B93000007002402C7D0020F0B585B00C4601F06F
:10B940007F00CE09410001EBD4153F4901EB051101
:10B95000C97AA9B93C4D06EB40010F0105EB011175
:10B96000EA518B800022CA80A0B9002B41D1374B0D
:10B97000D3F88034C3F3C013B3423CD001230AE0B0
:10B98000334B1B6813F0010F00D000BE0025284682
:10B9900005B0F0BD00231D467BBB002E4DD106EB4C
:10B9A0004003294A02EB03130122DA7200283FD038
:10B9B000BFF36F8FBFF34F8F06EB4003224A02EBBA
:10B9C00003139B7A03F0FF05002B3AD006EB4003EC
:10B9D00002EB0313DB7A03F0FF04002BD7D006EB56
:10B9E000400302EB031300229A72FFF79DFD2546E8
:10B9F000CDE70023CFE70023CDE71648FFF74EFD44
:10BA0000154B5968C1F308010023019302938DF887
:10BA1000043007228DF805208DF8084003938DF837
:10BA20000930C91A18BF012101A8FEF7DDFDAEE7F4
:10BA30000A48FFF733FD0125A9E7FFF74DFD012572
:10BA4000A5E70125A3E700BF2C7D00200070024080
:10BA5000F0ED00E05070024000ED00E04C7002405C
:10BA600008B511F07F0007D1114B01225A65BFF3D1
:10BA70006F8FBFF34F8F08BDCB090828F7D041F473
:10BA800080710B4AC2F81815002BF0D103EB40026D
:10BA9000084901EB0212927A002AE8D003EB400336
:10BAA00001EB031300229A72FFF73EFDDFE700BFB0
:10BAB000007002402C7D002011F07F0319D0CA09CC
:10BAC000082B16D010B40B48C0F80C1541F4807444
:10BAD000C0F80C45C0F8181522B903F5947300217D
